:020000040800F2
:1000000000200020090000080248006885460248D8
:0C00100000680047005000080450000881
:1050000000200020C5580008BD580008BF580008FF
:105010000000000000000000000000000000000090
:10502000000000000000000000000000C15800085F
:105030000000000000000000C3580008DD56000812
:105040001559000815590008155900081559000888
:105050001559000815590008155900081559000878
:105060001559000815590008155900081559000868
:105070001559000815590008155900081559000858
:105080005156000815590008000000001559000885
:105090001559000815590008155900081559000838
:1050A000316F000815590008155900081D530008F4
:1050B000A55200080000000015590008000000007B
:1050C00010B5064C2378002B07D1054B002B02D0DE
:1050D000044800E000BF0123237010BDF805002044
:1050E000000000008882000808B5044B002B03D0A4
:1050F0000348044900E000BF08BDC04600000000AE
:1051000088820008FC05002002780B78013001310C
:10511000002A01D09A42F7D0D01A704702B47146E3
:1051200049084900095649008E4402BC7047C046F0
:1051300002B4714649084900095C49008E4402BC2A
:105140007047C046002934D00123002210B48842A1
:105150002CD301242407A14204D2814202D20901A6
:105160001B01F8E7E400A14204D2814202D24900C7
:105170005B00F8E7884201D3401A1A434C08A0426A
:1051800002D3001B5C0822438C08A04202D3001B00
:105190009C082243CC08A04202D3001BDC08224317
:1051A000002803D01B0901D00909E3E7101C10BC3B
:1051B0007047002801D00020C04307B4024802A174
:1051C0004018029003BDC046D90000000029F0D06D
:1051D00003B5FFF7B9FF0EBC4243891A1847C04612
:1051E000002941D010B4041C4C40A44601230022E5
:1051F000002900D54942002800D5404288422CD3DE
:1052000001242407A14204D2814202D209011B01D8
:10521000F8E7E400A14204D2814202D249005B00D7
:10522000F8E7884201D3401A1A434C08A04202D33F
:10523000001B5C0822438C08A04202D3001B9C0880
:105240002243CC08A04202D3001BDC0822430028E2
:1052500003D01B0901D00909E3E7101C6446002CA8
:1052600000D5404210BC7047002806D003DB002068
:10527000C043400801E08020000607B4024802A1B4
:105280004018029003BDC046190000000029EBD071
:1052900003B5FFF7A7FF0EBC4243891A1847C04663
:1052A0007047C04608B5024800F0FAF808BDC0468D
:1052B000D082000830B589B002AC0A4A231C23CA48
:1052C00023C323CA23C301A81C23037001234370F3
:1052D000837002F0D1FC0448211C00F063F809B08F
:1052E00030BDC046A0820008D082000808B5011C6D
:1052F000014800F01FF908BDD082000808B5024837
:1053000000F040F9C0B208BDD082000808B50248DC
:1053100000F0C0F808BDC046D082000808B50248B9
:1053200000F0BEF808BDC0461883000830B589B04B
:1053300002AC094A231C23CA23C323CA23C301A8DE
:105340001B2303700123837002F096FC0348211C89
:1053500000F028F809B030BDB882000818830008B2
:1053600007B51B2301A803700023837002F084FC9F
:1053700007BD000008B5011C014800F0DBF808BDBE
:105380001883000808B5024800F0FCF8C0B208BD58
:105390001883000808B5024800F07CF808BDC04634
:1053A00018830008F0B5436800221A605A609A60BA
:1053B000DA60036885B0041C0191D869D968DB6A9A
:1053C00008431843012102F027FC2F4D2368A268EF
:1053D00018680121AA4202D102F02AFC01E002F081
:1053E00033FC23685868198A9A7C02F04BFD2368C5
:1053F0005869198C0333DA7F02F044FDA368AB428D
:105400000AD12368586A198E32331A7802F03AFDAD
:10541000A068012102F06EFA236869461A89012505
:1054200000260292032702220A734F738E73CD73F4
:10543000586802A902F0EBFC236869461A8D586A85
:10544000029202220A734F738E73CE7302A902F086
:10545000DEFC236802A91A8B5869029202F0D7FC7D
:10546000A068019902F0DCF9A0682A1C074902F043
:105470004FFAA0682A1C064902F04AFAA068291CC3
:1054800002F026FA05B0F0BD003801400501050024
:1054900007010700436818685B68C01A704700007E
:1054A00070B51F49041C806802F049FA002816D024
:1054B000A06802F01BFA061C201CFFF7EBFFE16856
:1054C0008B1E98420BDA6568F6B22868FFF77EFEFD
:1054D0002B6959180E7063681A6801321A60A06847
:1054E000104902F02CFA002818D06368A568996862
:1054F000DA6891420DD0D8682169421CDA605E6991
:10550000FFF764FE76183178281CC9B202F0EAF978
:1055100004E0281C0349002202F0FAF970BDC046DD
:10552000050105000701070043689868DB68C01A99
:105530007047000070B5041C0E1C201CFFF7F4FF20
:105540002369023B9842F8DA201CFFF7EDFF23693C
:105550000022991E884211DA6568191CA868FFF7B5
:1055600035FE6B6959180E706368A0689A68044923
:1055700001329A60012202F0CBF90122101C70BDA9
:10558000070107004368021C1868596810B5884273
:105590000AD058681C69411C5960D168FFF716FE93
:1055A00064182078C0B201E00120404210BD000024
:1055B000F7B51D4800F006FF0121022002F044FB70
:1055C00001A81023194D0126037003238670437030
:1055D00002F052FB1649174B00242F27281C0F807E
:1055E0004B604C800C8102F0C9F9321C281C391C1C
:1055F00002F000FA10496423281C8B604E800C8056
:105600008C8102F007FA281C211C02F045FA321C9A
:10561000281C082102F046FA281C211C02F0EDF992
:10562000064800F0CFFEF7BD60830008000400408C
:10563000500D0020102700003C0D00203B89000881
:1056400008B50248002102F0DAF908BD0004004064
:1056500008B50922034B52421A82FFF7F1FF00F00E
:10566000C1FE08BD0004004010B50749074C886022
:10567000201C02F0CFF9201C002102F0BEF9201CF2
:10568000012102F0BCF910BD3C0D002000040040D7
:1056900010B58AB0041C01A802F018FA0298211C67
:1056A000FFF750FD0A4B013898420DD8094B0A4AC2
:1056B0005860106AC0210002000A09060143116205
:1056C00000229A6007221A6000200AB010BDC0466E
:1056D000FFFFFF0010E000E000ED00E008B500F083
:1056E00067F9074BFA211868890001301860FFF745
:1056F0006DFD002903D1034B1A6801321A6008BD01
:105700001406002018060020024A03681068C01A18
:105710007047C0461406002013B5074A031C1268E0
:105720000192002905D0019C0068241A00208C42B7
:1057300001D31A60012016BD1406002013B5064BD4
:10574000041C1B68019300936846211CFFF7E4FFCB
:105750000028F9D013BDC04614060020344B0122A6
:10576000196882B011431960586832490140596084
:1057700018683149014019601868304901401960C2
:1057800058682F4901405960D96A0F208143D96276
:10579000186B2C4901401963596B914300225963DE
:1057A0009A60009201921968802252020A431A609C
:1057B00019688022920211400191009901310091F3
:1057C0000199002904D10098A021C9018842EFD194
:1057D00019680A4000D001220192019A012A25D1BC
:1057E000194A112111605A685A605A685A605968FA
:1057F000164A0A405A605968882252030A435A607E
:105800001968802252040A431A601968084A8801FC
:10581000FBD5516803208143516051680220014348
:10582000516059680C220A40082AFAD102B0704728
:10583000001002400CB8FFF8FFFFF6FEFFFFFBFF71
:10584000FFFFC0FFACFEFFFF00200240FF7FC0FF54
:1058500070B5154D0C236A68144C1340042B01D00D
:10586000082B02D0124B236014E06E68C023B602EE
:105870006A68360F5B0202361A4202D10D4B5E4354
:1058800007E0E96A0F23194001310948FFF75AFC84
:10589000464326606B68084A1B061B0FD35C2268D0
:1058A000DA40226070BDC0460010024000010020B6
:1058B00000127A0000093D00F00000207047FEE76A
:1058C000704770470D488546002103E00C4B5B583C
:1058D000435004310B480C4B42189A42F6D30B4A02
:1058E00002E0002313600432094B9A42F9D3FFF718
:1058F00035FF02F05DFB01F037FAFEE700200020E3
:10590000D88A0008C0000020F8050020F805002013
:10591000D0140020FEE70000FA2138B512488900B3
:10592000FFF7FAFE00281DD0104DFA2128786B7879
:10593000000218430E4BC01058438900FFF750FC7B
:105940000C4B0D4C1860608001F04EFC2B1C0028A5
:1059500002D00122227000E02070482000210222A3
:1059600001F0F4FB38BDC0465C0D002004010020AE
:10597000350C00001C060020600D0020044A902316
:10598000DB058000998A125A0A439A827047C04602
:1059900020010020C20F10189023044A4010DB059C
:1059A0008000998A125A0A439A827047380100206F
:1059B00038B50E4B1A881C1C002A02D00C4800F087
:1059C00001FD0C4B0C491A880D8A3F2111400B48F0
:1059D0000132490092B245523F2A01D81A8003E0B1
:1059E00000221A800123238038BDC04620060020F3
:1059F000708300082C06002000040048900E002050
:105A000008B5002902D0FFF7B9FF07E09023044949
:105A1000DB0580009A8A41588A439A8208BDC046B5
:105A20002001002008B5002902D0FFF7B3FF0AE0EB
:105A3000C10F0818902340100349DB0580009A8AA3
:105A400041588A439A8208BD3801002010B50124CC
:105A5000002805D00024012802D0024800F0B2FC42
:105A6000201C10BD7383000808B5FFF7EFFF482323
:105A70004343084A9958012902D1D318187B04E0FE
:105A80000020814204D1D318187D431E984180B272
:105A900008BDC046700D0020094A002310B51360F0
:105AA000834209DA48215943064A01335118FA2240
:105AB00092010A644A64F3E7034800F083FC10BDD6
:105AC00028060020700D002091830008042906D8C4
:105AD000002A04D148235943012340188360002041
:105AE0007047000037B5002301938A4202D9056C44
:105AF000501A03E08A420CD2056C881A0A21FFF77B
:105B00006FFB0A21041C281CFFF71CFB4443019473
:105B100002E0024800F056FC01983EBD9F83000859
:105B2000F0B5C04A87B01388002B00D1C6E0BE4D47
:105B3000002329881380BD4A980084580022101C35
:105B4000BB4EB65A02322640771EBE418019802ACB
:105B5000F6D101229A40302801DD914301E0114342
:105B600089B20133042BE6D1B24B29801A888A42CC
:105B700001D100245DE0B04800F024FC00242B8813
:105B80000122234113421AD0211C601048261140E3
:105B9000AA4B7043002907D11E183030B27618186E
:105BA000FFF7BAFDA64808E01A180221101C9176EA
:105BB00034300021FFF7B0FDA24800F003FC0134AF
:105BC000042CDCD100249B482988038821412341EF
:105BD000181C48400322104227D0114025D1012231
:105BE0001A400DD0621048205043944B1E1830309C
:105BF000B176C018FFF788FDB063B16B92480EE034
:105C000099070FD5482163104B438C48C618301CA8
:105C1000B2763430FFF778FDF063F16B8B4800F01B
:105C2000D1FB02E08A4800F0CDFB0234042CA0D066
:105C3000C9E72A880323224113402ED00126171CCE
:105C4000374014D0631048275F430597381C7B4FBB
:105C50003030C019FFF758FD9623B340984223D93E
:105C6000059A0023BF18FE613B62BB631CE09307EB
:105C70001AD5631048225A43704905928818343067
:105C8000FFF742FD96235B0098420DD96B4A0598B9
:105C900013181E62DF61DF6306E0482162104A4389
:105CA00066498A18D36113620234042CC1D12B884F
:105CB00060490B80674B1A88674B1A8067480F2131
:105CC000FFF72AFD002800D1D8E15C4C0022271CF8
:105CD00028370592151C2368012B00D02AE1207B70
:105CE000072800D90CE1FFF723FA0454BB8ED4F83F
:105CF000C8E1A8B2FFF7B8FE061E00D000E14F4A87
:105D00000598111C83189868012802D19E602660AE
:105D1000F6E0482068431218906B46280DD9906B26
:105D20002C22FF32904208D80123311C2373381FE4
:105D3000FFF7F2FC281C311C1BE048226A438A183A
:105D4000D16B3832462909D951682C22FF32914251
:105D500004D801232373381F002114E0D9690029D6
:105D60000AD0012300212373381FFFF7D5FC281C1C
:105D70000021FFF757FEC3E01B6A002B00D1BFE0F4
:105D800001232373381FFFF7C7FC281CFFF702FE0F
:105D9000B6E0381F6421FFF7BFFC002800D1AFE058
:105DA00048226A43254B9A18916B462906D9916B74
:105DB0002C22FF32914201D806230CE048226A438C
:105DC0009A18D16B383246290BD951682C22FF32F0
:105DD000914206D807232373381C0021FFF79CFC4F
:105DE0000BE005995B18DA69002A01D0042303E06F
:105DF000196A002905D005232373281CFFF7BEFD6F
:105E00007EE0281C34E0381C6421FFF785FC002864
:105E100076D048226A43094900238A182373936382
:105E2000D3636DE020060020260600200801002034
:105E3000900E002024060020AA830008700D002088
:105E4000B7830008C1830008CD830008DD83000804
:105E5000EF830008220600202E060020640D00209B
:105E6000381C6421FFF758FC002849D0281C002169
:105E7000FFF7D8FD0323237342E0281CFFF77EFDC4
:105E8000381CFFF741FC48236B437D4AD3181B6C39
:105E900018E0281CFFF772FD794B0598C318DE69DE
:105EA000002E2DD1774800F08DFA1FE0281CFFF757
:105EB00065FD381CFFF728FC48236B43704AD31854
:105EC00040335B6898421BD9281C0021FFF798FDDE
:105ED00002232373381C002110E0281CFFF74EFD1D
:105EE000674B0599CB181E6A002E09D1281C311C5E
:105EF000FFF786FD02232373381C311CFFF70CFCCF
:105F0000227B637B934212D05D48059B191848237E
:105F10006B43C318181C38309E6B4068CB69096A04
:105F20000290009101965848291C00F04BFA237BFF
:105F3000637391E0002B00D08EE0207D062800D90D
:105F400080E0FFF7F5F8047F33776B7F4F00A8B24E
:105F5000FFF78AFD002875D14949059843181A6A48
:105F6000002A0DD1D86900280AD148226A438A182C
:105F7000111C38314968002902D1916B002902D0E7
:105F8000012323605EE01A8BDB8A9A425AD0281CD8
:105F90009A4202D9FFF746FD01E0FFF7FBFC02231E
:105FA0002375381F0021FFF7B7FB4BE0381F642132
:105FB000FFF7B2FB002845D03149059A201C8B1809
:105FC0001A8BD98AFFF78EFD48236B432C49CB18D7
:105FD000D862281CFFF7D2FC381C0021FFF79CFB7D
:105FE00006232EE0381CFFF78FFB48236B43244A1F
:105FF000D318DA6A2833904224D300265E60281C26
:10600000311CFFF7FDFC059B1D48311C1A18138B32
:10601000381CD382FFF780FB042312E0381C642174
:10602000FFF77AFB00280DD0281C0021FFF7FAFCAF
:10603000032306E0381C6421FFF76EFB002801D023
:1060400000232375227D637D934203D00F48291CD2
:1060500000F0B8F9237D637521686268914202D02F
:106060000B4800F0AFF905982368483001356360AC
:10607000059048344837022D00D02CE607B0F0BD1B
:10608000700D0020F983000807840008528400087E
:1060900066840008482370B54343114E041CF3186E
:1060A0001B7D002B19D10D1C642900D96425ADB2CC
:1060B000281C0A21FFF78AF86D1AADB2211C2A1C90
:1060C000084800F07FF94823281C0A215C43FFF7A9
:1060D00039F80A23584336193083002070BDC04672
:1060E000700D00206F84000870B50C1C022817DDAD
:1060F000486800210A1C02F02FF80021061C0A1C27
:10610000A06802F029F848247443084B051C1C19A8
:10611000E38A0748311C2A1C00F054F9258302E069
:10612000044800F04FF9012070BDC046700D0020FA
:106130007A840008AC84000808B501F0DBFA08BDD9
:1061400010B50C1C00281AD0012808D10A2902D148
:106150000D20FFF7CBF8E0B2FFF7C8F80FE00228F8
:1061600008D10A2902D10D20FFF704F9E0B2FFF7A8
:1061700001F904E00368197003680133036010BD7E
:10618000F7B5141C00900191002A0FDD0A1C01993B
:10619000501A1178002901D00132F8E7A04201DA43
:1061A000241A00E00C1C30279A0700D42027002571
:1061B000D9070CD4251C002D05DD0098391CFFF7EC
:1061C000BFFF013DF7E7E543ED172540641B2E1C9B
:1061D000019A531B995D002904D00098FFF7B0FF86
:1061E0000136F5E7251C002D05DD0098391CFFF769
:1061F000A7FF013DF7E7E043C01704403019FEBD9B
:10620000F0B587B0071C00920C1E09D103AB3022F9
:106210001A7059700C9A191C0D9BFFF7B1FF42E0E0
:1062200000220192934207D0009B0A2B04D1914295
:1062300002DA01224C42019200226B466E46DA7568
:106240001636751C002C11D0201C0099FEF7BEFFDD
:10625000092902DD0E9B3A3BC91830313170201CF0
:106260000099FEF76FFF013E041CEAE7019B002B3B
:1062700012D00C9A002A0BD00D9B9B0708D5381C16
:106280002D21FFF75DFF0C9A0124013A0C9203E0E7
:10629000013D2D232B700024381C291C0C9A0D9BCA
:1062A000FFF76EFF201807B0F0BD0000F0B589B011
:1062B000061C0D1C059200242B78002B05D0252BE5
:1062C00073D169786A1C002905D1102E74D93368FE
:1062D00000221A7070E0252966D000232D2901D1F3
:1062E000AA1C0123151C2A78302A03D10222013569
:1062F0001343F8E700222978081C3038C7B2092F69
:1063000004D80A214A4301351218F4E7732907D14A
:106310000599081D09680590002941D128493FE0E9
:1063200064290ED10599081D096801936123059020
:1063300000920293301C0A220123FFF761FF241808
:1063400038E0782907D10599081D0590096801935F
:106350000092612308E058290AD10599081D05908B
:1063600009680193009241230293301C10220BE034
:1063700075290BD10599081D0968019361230590C2
:1063800000920293301C0A220023D6E7632911D120
:106390000598011D0068059107A908700020487044
:1063A000301CFFF7EDFECAE7151C2978301CFFF7FB
:1063B000C7FE013401357FE7201C09B0F0BDC0469F
:1063C000D38400080FB407B504AA08CA044B049983
:1063D00018680192FFF76AFF03B008BC04B01847C1
:1063E0005001002038B5474B1868022825D00328F3
:1063F00003D0012800D083E04AE0434C2368002BFF
:106400000DD0012B15D1414B8022998A92000A436D
:106410009A82FFF715F93E4B00221A7009E03B4BB8
:106420008022998A92000A43FA209A824000FFF75C
:106430001BF923680133236062E0334C354D236838
:10644000002B05D1314B344A998A0A409A8245E0A3
:10645000012B13D1314A296810682C4A084118428F
:1064600004D0908A80239B00034302E0908A2A4B49
:106470000340013193823C2029602FE0022B2FD171
:10648000224A8021908A890001439182181C25E0CC
:106490001D4C204D2368002B06D11C4B1E4A998AA7
:1064A00002200A409A8219E0012B07D1174B802263
:1064B000998A92000A439A8208200FE0022B0FD19A
:1064C000124B1B8A9A0505D5154B2A6890401A680D
:1064D000104318602B68782001332B60FFF7C4F855
:1064E00023680133022B00DD002323602B68072B78
:1064F00006DD2468002C03D1FFF7A2F8044B1C70C2
:1065000038BDC04634060020300600200004004894
:1065100040060020100F0020FFFDFFFF380600207E
:106520003C06002008B5044B04481968044B1A685F
:10653000FFF748FF002008BD30060020DA8400087D
:10654000100F002008B5FEF715FF002008BD0B0A4C
:10655000017043700B0C090E8370C17004207047EA
:10656000F7B5041C55200D1C884700232383A389FD
:106570006E46271CF37118370736311C0122381C70
:1065800000F0ECFF3078A847A389311C1B0A0122D8
:10659000381C337000F0E2FF3078A847E389311CE3
:1065A0000122381C337000F0D9FF3078A847E38906
:1065B000311C1B0A0122381C337000F0CFFF3078E9
:1065C000A847207CA847211C10310122381C00F06C
:1065D000C5FF607CA847211C11310122381C00F046
:1065E000BDFFA07CA847211C12310122381C00F0FD
:1065F000B5FFE07CA847211C1331381C012200F0B4
:10660000ADFF0026E37C9E420ADA6369985DA847E5
:106610006369381C9919012200F0A0FF0136F1E7E7
:10662000207EA847208B000AA847AA20A847E36934
:1066300000200133E361FEBD08B51548FFF7C2FE37
:10664000FEF774FE1348FFF7BDFE01F087F8124B0A
:10665000984203D98820400101F056F801F07EF8F5
:106660000E4B81B218800E48FFF7ACFE0D4B0E4961
:10667000002259618021C90099605A705A600B4903
:106680000B4B5961802149005A7099605A6008BDCE
:10669000E9840008F6840008FEFF0000941400203E
:1066A000FA840008280F00205C0F00205C130020F3
:1066B0005C140020064B1B888B818389CB81054BA2
:1066C0001A78012313408B74037C0B747047C04607
:1066D0009414002054010020F0B585B06D46C74EDB
:1066E0000F3500272F707378341C0D2B00D1DBE0A1
:1066F000FEF750FE071E00D1C2E0FEF743FE2870F1
:10670000011C70780C2800D962E2FEF711FD071514
:10671000202C36444F5A65788C8F9600B84800215B
:10672000FEF7FAFFB74B1A68B74B1A602B78552B58
:1067300000D04DE201234AE2301C0023B1811A301F
:10674000291C0122738300F009FF02233FE2B38971
:1067500009021943301CB1811A30291C012200F0B2
:10676000FDFE032333E2301C04231A30291C0122CE
:10677000737000F0F3FE2B780BE0301C0523012230
:106780001A30291C737000F0E9FE2B78F2891B0285
:106790001343E3811CE2301C06231A30291C01221A
:1067A000737000F0DBFE2B78337411E2301C07238A
:1067B0001A30291C0122737000F0D0FE2B787374FC
:1067C00006E2301C08231A30291C0122737000F0E5
:1067D000C5FE2B78B374FBE18C4C0122201C291CD4
:1067E00000F0BCFE2B78201C1A380022C3744260D3
:1067F000934201D0092300E00A234370E8E1706965
:10680000726881547369301C7668012299191A30B4
:1068100000F0A4FE6368E27C01336360934200D021
:10682000D6E10A23D3E10B23737004E00C237370C9
:10683000338B090219432183CAE1AA2916D1728B2D
:10684000338B9A4209D10D237370736A002101338F
:106850006F487362FEF760FFBAE1B36A6D480133B7
:10686000B36200237370FFF7ADFDB1E1F36AF28903
:106870000133F362684800237370FFF7A3FDA7E1BB
:106880007378002B00D1A3E1FA215D488900FEF75F
:1068900043FF002800D19BE16048FFF793FD336B75
:1068A00077700133336393E1F2895D4E338893420D
:1068B00000D08BE1A2899A4200D187E1594D042290
:1068C000AB8A53481343AB820521FEF725FF00280E
:1068D00000D17DE1236A391C013353482362FEF75E
:1068E0001BFF524E201C311CFFF7E4FE637C351C5D
:1068F0000B2B62D016D8072B3AD009D8052B00D124
:10690000A2E000D9B0E0002B00D04BE1737450E15D
:10691000092B00D1E6E000D937E108237374F7743E
:106920000026DBE07D2B54D00ED80D2B00D11BE1CF
:1069300000D2FAE00E2B00D034E173743C4B726944
:106940001B681370012334E17F2B24D0394918D3FD
:10695000F02B00D026E1301C7374EF74FFF700FEBB
:106960000F20FEF7EBFE2E4E308800F003FF25E1EE
:106970007374314B70691968F774FFF7E8FDF074B0
:1069800001E12E4B6F741F70187801230340B3741C
:10699000EF74301C10E17374F774294AEB7CD25DFC
:1069A00068690137C2540133EB740A2FF5D1696964
:1069B000DBB20022CA540133FBE01E49301C737461
:1069C000F774FFF7CDFD0F20FEF7B8FE00F092FE42
:1069D000F4E01C487374F774FFF7F4FC63695878AB
:1069E0001A780002104300F08FFE63690C4F1A788A
:1069F0005B781B0213433B80C5E0C046280F002094
:106A00001C0F002014060020180F0020420F002049
:106A1000981400200C850008198500083E850008A0
:106A20009414002000040048901400205C140020FE
:106A3000700D002045650008180600205401002054
:106A400048850008538500087374F774E37C9F42FF
:106A500000DBAFE0022F00D1ACE06269B8B2D15DDB
:106A6000FFF718FB0137F1E7062373740023F37473
:106A7000E27C934200DB9DE0022B00D19AE04821AA
:106A800059435448EA7C0918C98A6E690133B154E4
:106A90000132EA74ECE7022E00D18BE0052171434C
:106AA000676940227B185F7818783F020743019797
:106AB0004827774347480231C719D2199446019AAB
:106AC0003A6467697A181178527812020A4361466B
:106AD0004A601A79B1B2FEF7F9FF0136E37C9E42B3
:106AE000D9DB67E07374F774EB7C6A693948D118B5
:106AF00048227A438218166C101C0E70360A4E70AB
:106B00006E69991C40304068C9B2E9747118087008
:106B1000000A48701268191D6869C9B20533013747
:106B20004254EB74022F45D0DEE72B4A0C237374DA
:106B3000716913780B70528873695A70120A9A70CF
:106B40000323F37400232349EA7C59180F686E6904
:106B5000501CB754C98A6E69C0B2023248333154EE
:106B6000EA74902B26D0EEE71A4D60697374F774BF
:106B70000278391C281CFEF7A9FF6169281C0A78D5
:106B80000121FEF7A3FF301C15E0134A0A2373749A
:106B90001378766933706B6952885A70120A9A704A
:106BA000032306E0191C0D48FFF70CFC01236B744E
:106BB0000023EB74281C0A49FFF7D2FC0023094F7D
:106BC0006370BB8A04229343BB8201E0002363709D
:106BD00005B0F0BD700D0020600D00206385000839
:106BE000456500080004004838B51248FFF7EAFB85
:106BF000114B12481988FFF7E5FB114C1148616AE7
:106C0000FFF7E0FB216A1048FFF7DCFB0F4DE16A5C
:106C1000281CFFF7D7FB216B0D48FFF7D3FBA16AB8
:106C20000C48FFF7CFFB281CE16AFFF7CBFB0020E5
:106C300038BDC0467F850008941400209185000867
:106C4000280F00209C850008AF850008C285000839
:106C5000D5850008E885000808B5034B188800F0C2
:106C600089FD002008BDC046941400203C4BF7B5B8
:106C70005A698024240322435A615A698020800281
:106C800002435A615A698025ED022A435A61012163
:106C900000F0C2FF281C012100F0BEFF201C0121D2
:106CA00000F0BAFF90240120E405011C00F0C0FFB1
:106CB000012600256B461027201C6946DD711E71D8
:106CC000009701F0A4F82023201C6946009301F0EE
:106CD0009EF8201C234C80236946009301F097F80E
:106CE0000223201C6946009301F091F80423201C24
:106CF0006946009301F08BF86B46DD711E719E7141
:106D000080239B00201C6946009301F080F86B46AD
:106D10009D71DE711D71201C08236946009301F0EE
:106D200076F8201C6946009701F071F82023201C9A
:106D30006946009301F06BF84023201C69460093DC
:106D400001F065F88023201C6946009301F05FF88C
:106D50008023B340201C6946009301F058F8F7BD2A
:106D60000010024000040048F0B589B000F0AAFC11
:106D700080200003012100F04FFF0120011C00F0E2
:106D800057FFFFF773FF494BFA2118688900FEF798
:106D9000D9F9474B013898420DD8464B464A5860BE
:106DA000106AC0210002000A090601431162002294
:106DB0009A6007221A60FEF74BFD802080020121B5
:106DC00000F02AFF80208002012100F03DFF90208A
:106DD000C0050221012201F055F890200122C005D2
:106DE000032101F04FF80024684603230226012501
:106DF0004371C5710671847190200C27C0056946E6
:106E0000009701F004F8E1235B022C4802A90293E9
:106E10000394049405940794069700F001FD291C3F
:106E2000264800F055FDFA20B040FEF731FC244D15
:106E3000211C281CFEF770FCFEF73CFA2148FFF7E6
:106E4000C1FA2148FFF7BEFA301CFEF725FEFFF716
:106E5000F3FBFEF7ADFB00F027F9281CC821FEF775
:106E60005BFC002804D0194B02219A8A4A409A827E
:106E7000174B196800290DD01648FEF74DFC002865
:106E800008D0154B0222995E144B02201A5E14485A
:106E9000FFF798FAFEF744FE00F074FAFFF71CFCC7
:106EA000FEF73AFD00F08AF9D7E7C046000100205E
:106EB000FFFFFF0010E000E000ED00E000440040B4
:106EC000A0140020FB8500085501002000040048A4
:106ED000440600209C140020C2140020600D0020F5
:106EE000FF85000810B50D4C01280ADD4868002117
:106EF0000A1C01F0BBF9011C20600948FFF762FA87
:106F00000AE000232360074B0220195E064B022093
:106F10001A5E0648FFF756FA012010BD440600200D
:106F20001D860008C2140020600D0020FF850008A7
:106F300073B5584E584CB569E90613D50A22A15EBF
:106F40005648FFF73FFA564B002222737621F36131
:106F5000301C00F01FFF534B04219A8A0A439A8287
:106F6000062363802388012B56D10223E05E042888
:106F700000D98EE0FEF7DCF8030C152C4500A907BC
:106F800000D486E02179434800F03CFF01237FE0F4
:106F90002A0600D47DE03F48012100F005FF0223CE
:106FA00076E0AB0775D50821635E22693948D15C6C
:106FB00000F028FF2389013323810621635E012B22
:106FC00043D1042333480021638000F0FBFE60E0DE
:106FD00082231D425DD00822A35E22692D48D15C28
:106FE00000F010FF23890621625E01339BB22381EA
:106FF0001BB29A424DDC2748002100F0E3FE042337
:1070000046E020231D4244D0F36100222148722132
:10701000227300F0BFFE3AE0002B3AD10222A05EBC
:10702000042836D8FEF77AF8AB0335132800690632
:107030002FD5618990239B014900A2790093802379
:1070400089B214489B0400F0CBFE032320E0042601
:1070500035421ED023890F485A1C228122691BB257
:10706000D51800F0D1FE28700823E25E0621635E89
:107070009A420EDB66800CE020231D4209D0F361AA
:1070800004487621002200F085FE002323730523A7
:10709000638073BD00580040A41400203A860008A5
:1070A000FF2F000000040048F0B5234E8BB02348AA
:1070B000FFF788F9301C00F017FE8020C002012184
:1070C00000F0AAFD8020C003012100F0BDFD1C4F8F
:1070D000C0231B010024012501A90193381C0223B0
:1070E0000B714C71CD718D7100F091FE381C2A1C12
:1070F0000A2100F0C7FE2A1C381C0B2100F0C2FE3A
:10710000104B03A9301C0393049405940794069430
:107110000894099400F002FE6A461823684613702A
:107120005570957000F0A8FD301C291C00F028FE59
:10713000054B1C730BB0F0BD005800404F86000893
:1071400000040048895E8010A4140020F0B5184C9B
:1071500087B0039104920593257B071C002D04D072
:107160001448FFF72FF900201FE0201C291C1430C1
:10717000FEF7D2FA039B0126A380049B2673E380CB
:10718000059B6781236180239B0125806580258184
:10719000790000930848321C2B1C00F021FE0648A1
:1071A0007621321C00F0F6FD301C07B0F0BDC04661
:1071B000A41400205B8600080058004008B5084869
:1071C000037B002B0AD014303221FEF7A5FA0028E9
:1071D00004D00448FFF7F6F8FFF766FF08BDC04685
:1071E000A414002066860008034B0222985E05382E
:1071F00043425841C0B27047A414002073B58023A5
:1072000045009B010E1C00931348291C01220023FA
:1072100000F0E6FD104CA3699A07FBD5201C311C39
:1072200000F0F0FDA3695A06FCD590239B01009362
:1072300080230948291C01229B0400F0D1FDA36989
:107240005A07FCD5044800F0DFFDA26920231A424A
:10725000FBD0014AD36176BD0058004073B580234E
:107260009B01009380230E1C151C41000122124833
:107270005B0400F0B5FD104CA3699A07FBD5201CF8
:10728000311C00F0BFFDA3691A06FCD50A48012194
:1072900000F08AFDA3699A07FCD50748291C00F075
:1072A000B1FD0548002100F08DFDA26920231A429E
:1072B000FBD0014AD36176BD0058004070B50C1C6C
:1072C000032820DD486800210A1C00F0CFFF0021C0
:1072D000061C0A1CA06800F0C9FF0021051C0A1C3E
:1072E000E06800F0C3FF041CE9B2E2B2F0B2FFF7BD
:1072F000B5FFFF23311C2A1C19401A4004482340C3
:10730000FFF760F802E00348FFF75CF8012070BD6A
:107310007D860008AC84000838B50C1C022818DDF6
:10732000486800210A1C00F0A1FF0021051C0A1C6E
:10733000A06800F09BFF041CE1B2E8B2FFF75EFF1B
:10734000FF22291C031C114004482240FFF73AF891
:1073500002E00348FFF736F8012038BDA586000893
:10736000AC84000810B5041C002C0ADD0820FDF7D1
:10737000BDFF2020FDF7BAFF0820FDF7B7FF013C55
:10738000F2E710BDF8B5FDF7C1FF002878D0FDF792
:10739000B5FF3C4C051C01231B2807D02378002B8C
:1073A0002ED0012B04D15B2828D10223237067E063
:1073B000022B23D1412807D1334E3068FFF7D2FF8B
:1073C000324D2968013908E0422817D12E4E306825
:1073D000FFF7C8FF2D4D29680131072739402C4A96
:1073E0002960890151182B48FEF7ECFF2868284BCB
:1073F0000740B801181800F00AFE30600023D5E7F6
:10740000214C082801D07F280ED12368002B37D0CB
:10741000013B08202360FDF769FF2020FDF766FF90
:107420000820FDF763FF2BE0184E194F32689301D7
:1074300022689B18D8550A2806D00D2804D0FDF7DD
:1074400055FF23680133236023683F2B03DC0D2D98
:1074500001D00A2D14D13068072528408001C218B8
:107460000021B9548B4206DD381800F0E9F8336882
:1074700001331D4035600848FEF7A4FF0023236058
:10748000F8BDC0464C0600204806002050060020EB
:107490007D010020EF870008D18600087FB5092212
:1074A000051C0E1C01A80D4900F0A8FD0C48FEF7B4
:1074B00089FF0024AC4207DAA300211CF2580948D6
:1074C000FEF780FF0134F5E701A90748FEF77AFFD0
:1074D00001A800F0B5F8002004B070BDF5860008E2
:1074E000D5860008DE860008ED86000808B500F0A5
:1074F000DBFC352000F0F0FC08BD0000F8B5041CF2
:10750000171C0D1C0026BE421FD2114B22689A4246
:107510001BD81048FEF756FF2068296800F020FDB0
:1075200004280ED121680C48FEF74CFF043523686F
:107530002A1F12681968914205D10433236001366D
:10754000E1E7012002E0022000E00020F8BDC04693
:10755000FBFF0308068700080E87000870B50023AC
:10756000048893420BDACE5C064D6640F6B2760094
:10757000755B240A6C40013304809BB2F0E7A0B233
:1075800070BDC0467E030020F8B5051C23480C1CC6
:10759000FEF718FF012D33DD65682B782D2B17D1F1
:1075A0006B786C2B12D11E48FEF70CFF1D4C251C6E
:1075B00021681D48FEF706FF2B1C0C3478339C42D3
:1075C000F6D321681948FEF7FDFE25E0184814E0BF
:1075D000144C271C2668291C301CFDF795FD00283B
:1075E00005D1A268311C1348FEF7ECFE04E03B1CF9
:1075F0000C3484339C42EDD30F48FEF7E3FE0BE0DE
:10760000084C251C2168A2680C48FEF7DBFE2B1CE9
:107610000C3484339C42F5D30020F8BDA0870008C9
:10762000A78700081C870008B2870008EE870008BB
:10763000B7870008CA870008D6870008E7870008D0
:10764000F0B5B3B0011C4022684600F0E7FC00A88A
:107650001190002301256946CA5C002A15D0202A12
:1076600010D10022CA545A1C6846815C202901D1DD
:10767000131CF8E7002905D000A9A8008A1811A951
:107680004250013501333F2BE5DD0C4C119F261C88
:107690002068391CFDF738FD002804D16368281CD8
:1076A00011A9984707E0331C0C3484339C42EFD374
:1076B0000348FEF787FE33B0F0BDC0461C870008C4
:1076C000F287000808B50023802000051A18084832
:1076D000990009180968920001331160302BF3D129
:1076E0000120011C00F0A4FA032000F0E5F908BD18
:1076F0000050000808B50348FEF764FE00F0ECFAFD
:10770000FEE7C046138900081FB5114C01235B42F8
:1077100002930390019400F0C7FBFFF7E7FE201CE3
:1077200000F002FC002404280ED101A802A90222C4
:10773000FFF7E4FEA04204D10648FEF743FE012411
:1077400002E00548FEF73EFE201C04B010BDC04616
:1077500000FC00082C8900083E89000810B5034C85
:1077600003482168FEF72EFE206810BD04FC0008C7
:107770005389000830B5051C85B0144C1448FEF739
:1077800021FE0023029303950194FDF7E9FD291CD6
:107790001048FEF717FE00F087FBFFF7A7FE201C3E
:1077A00000F0C2FB01A802A90222FFF7A7FE0028F1
:1077B00002D10948FEF706FE084B21681A680848FE
:1077C000FEF700FE00F080FBFFF794FF00FC0008CE
:1077D00071890008898900082C89000804FC0008C8
:1077E000B089000838B5051C486800210A1C00F063
:1077F0003DFD012D07DD84B2201CFFF785FF002829
:1078000001D0044B1C80044B04481968FEF7DAFDD4
:10781000012038BD9414002004FC0008538900089E
:10782000036801229343F0B503604268224B0D1CAC
:10783000896813400B4343600268204B69681A4013
:10784000EB688BB00B432969041C0B4313430360A3
:1078500082681B4B13406A691343836001A800F0E0
:1078600035F9184B9C4201D1079E05E0164B9C420E
:1078700001D1089E00E0039E23682F68190400D5FB
:107880007600391C301CFDF75DFC391C051C301CD2
:10789000FDF79CFC7F080023B9425B41ED1823688B
:1078A0001A0404D5094A2B075B0F15401D43ADB2DE
:1078B000A5810BB0F0BDC046FFCFFFFFF3E9FFFF8E
:1078C000FFFCFFFF0038014000440040F0FF0000D3
:1078D00001230268002901D0134301E09A43131CDD
:1078E00003607047C905C90D01857047808CC005CC
:1078F000C00D70478268002903D08023DB01134349
:1079000001E0024B134083607047C046FFBFFFFF9A
:107910008BB210B5C9B201248C401B0A211C022B6A
:1079200001D1043002E0032B00D108300368002AA3
:1079300002D01943016001E08B43036010BDCBB25C
:1079400010B501248AB29C40120A231C012A01D1DD
:10795000026804E0022A01D1426800E08268134014
:10796000C2690020834208D0090C01208840011C14
:10797000101C0840411E8841C0B210BD0388164A41
:1079800030B59BB2904206D08024E405A04202D0DC
:10799000124CA04203D17024A3434C882343104CC3
:1079A000A04203D00F4D0C892B40234303804B682A
:1079B000C3620B880385904208D00B4B984205D0D8
:1079C0000A4B984202D00A4B984201D18B7A038627
:1079D0000123838230BDC046002C014000040040DA
:1079E00000100040FFFCFFFF004001400044014048
:1079F000004801400185828270474162704701233F
:107A00000288002901D0134301E09A43131C03802C
:107A100070470000028C1A4B30B513400384058C6C
:107A20008288848B73239C430B8892B21C43154B32
:107A30002B408D892D022B434D889BB22D022B4369
:107A4000114D9BB2A84214D1104D2B40CD892D026F
:107A50002B430F4D2B408D882D022B430D4D9BB298
:107A60002A400D8A2D012A434D8A92B22D012A43C4
:107A700092B282808A688483C263038430BDC04628
:107A8000FFFEFFFFFFFDFFFF002C0140FFF7FFFFA0
:107A9000FFFB0000FFCFFFFF838B082293431943B6
:107AA000818370478389002A02D01943818101E0D4
:107AB0008B43838170470000034B03211A688A437C
:107AC000104318607047C04600000140F8B54B4DA8
:107AD000041C68680C231840FDF72AFB1F1F1F1F9A
:107AE0001F1F1F1F071F1F1F1D006E68C023B60228
:107AF0006A68360F5B0202361A4201D1404807E03D
:107B00003E4B4048D96A0F2319400131FDF71AFB5B
:107B10007043206004E03C4B00E03A4B23600020BF
:107B20006A683A4B1206120F21689A5C0E1CD64006
:107B30006660321C6E687605760F9B5DDA40A26047
:107B40002B6BDE0501D4324B06E02C4B5B685E04E8
:107B500001D4530800E09308E3602B6B5E0601D468
:107B60002C4B01E080231B0223612B6BDE0602D429
:107B7000244B636100E061612F6B03231F4E1F42A2
:107B800001D1A26112E0376B1F40012F01D1A16129
:107B90000CE0376B1F40022F02D180231B0204E050
:107BA000366B3340032B01D1164BA361C0232F6BDF
:107BB0009B02124E1F4201D1E26116E0376B802218
:107BC0001F405202974201D1E1610EE0316B8022E9
:107BD00019409202914202D180231B0204E0326BD1
:107BE0001A409A4201D1074BE3612B6B1A0602D46B
:107BF000054B236200E02062F8BDC0460010024041
:107C000000093D0000127A00006CDC027E050020B5
:107C1000809FD50012800000044B5A69002902D0D1
:107C20001043586101E082435A61704700100240DE
:107C3000044B9A69002902D01043986101E0824305
:107C40009A61704700100240044BDA69002902D0A3
:107C50001043D86101E08243DA61704700100240AE
:107C6000044B1A69002902D01043186101E08243D5
:107C70001A61704700100240827870B50378002ABC
:107C80001DD09908124A0324890089182340C02274
:107C9000A3409200FF248D58261C9E40B543467891
:107CA000B60134409C402B1C23438B5002781F2389
:107CB0001A40012393401A1C054B1A6006E01F224C
:107CC000134001229A40131C024AD36770BDC0467C
:107CD00000E100E004E100E0014A024B1A60704755
:107CE000CCCC00000030004008B50B4B984207D1C7
:107CF000802080030121FFF7B3FF8020800306E08E
:107D00008020C0030121FFF7ABFF8020C0030021CA
:107D1000FFF7A6FF08BDC0460054004002680123DB
:107D20009A43026030B5134A04688D6822402C02E1
:107D300022434C680D68224302600F4ACC682A40F7
:107D40000261026813430360002383608A69C36091
:107D50000B6913438360826880231B021343836093
:107D60000368234303604268044B13404A6913438A
:107D7000436030BDFFE0CF00FFFFFFF0FF7FFF0754
:107D800001230268002901D0134301E09A43131C28
:107D9000036070470368002A02D01943016001E0C4
:107DA0008B430360704700004268002903D08023A2
:107DB0009B04134301E0024B134043607047C046ED
:107DC000FFFFFFFD4268002903D080235B041343BB
:107DD00001E0024B134043607047C046FFFFFFFEC7
:107DE00030B54568064C89052C40039D2C43234340
:107DF0008C0D191C214314040A1C2243426030BD1F
:107E0000009800FC81627047406AC0B27047F7B5C5
:107E10000B68019300230124019A9C402240A24256
:107E20002CD10D796C1E012C14D887685C000326B8
:107E3000A640B74387604E798768A640341C3C4310
:107E400084608488944384808A7984889A40224319
:107E500092B282805A00032407689440E44327408A
:107E60000760076895403D430560C5682C40C460C5
:107E7000CD79C46895402A1C2243C2600133102B7F
:107E8000C9D1F7BD07230B40C9088900401810B5B8
:107E9000016A9B000F249C40A1430162016A9A4041
:107EA000131C0B43036210BD044B1A69110603D562
:107EB000034A5A60034A5A607047C0460020024095
:107EC00023016745AB89EFCD024B80211A690A4334
:107ED0001A61704700200240014BD8607047C046CD
:107EE00000200240074B0120DA68024209D1DA681B
:107EF0000220D10605D4D8680423184043425841D3
:107F0000033070470020024010B5041CFFF7EAFF61
:107F1000012805D1002C05D0FFF7E4FF013CF7E76D
:107F2000002C00D1052010BD70B5061CB020000348
:107F3000FFF7EAFF042810D1084C022523694022EC
:107F40002B43236166612369B0201343236100033F
:107F5000FFF7DAFF2369AB43236170BD00200240C5
:107F6000F7B5071CB020002300030E1C0193FFF798
:107F7000CBFF042818D10D4C01252369B0202B43D9
:107F80002361B3B23B800003FFF7BEFF042808D192
:107F900002370197019B360CB0201E800003FFF7CB
:107FA000B3FF2369AB432361FEBDC04600200240FE
:107FB00070B50E4B0E4D0024ED1AAD101E1CAC42D8
:107FC00004D0A300F35898470134F8E700F05CF9B7
:107FD000084B094D0024ED1AAD101E1CAC4204D014
:107FE000A300F35898470134F8E770BDD08A000821
:107FF000D08A0008D08A0008D48A000810B500236F
:10800000934203D0CC5CC4540133F9E710BD002384
:10801000C25C0133002AFBD1581E704730B5031CE7
:10802000002A07D00C7801335D1E013A2C70013113
:10803000002CF5D19A18934203D000211970013316
:10804000F9E730BDF0B51D1C424B87B01B680590A9
:108050000293039101920B1C1C78029F5E1C3A193B
:10806000517808220A4001D0331CF5E72D2C04D1A9
:1080700001279E1C5C78009704E000922B2C01D114
:108080005C789E1C10232A1C9A4311D1302C08D1F5
:10809000327820218A43582A07D174781D1C023671
:1080A00006E0002D04D10A2502E0002D00D10825AC
:1080B000009F291C7B427B4180273F06FF1A381C0A
:1080C000FDF784F8381C0491291CFDF73BF80023C8
:1080D000021C181C029F391949784F0701D5303C02
:1080E00007E003270F4017D05721012F00D1372178
:1080F000641AAC4210DA591C0BD0904207D802D156
:10810000049FBC4203DC68430123201801E00123E3
:108110005B4234780136DDE7009F591C0BD180208B
:108120007B427B410006059FC01A22233B60019FD2
:10813000002F09D10BE0002F00D04042019F002FFB
:1081400005D0039A002B00D0721E019F3A6007B041
:10815000F0BDC0469005002038B5131C044A051C2C
:108160000C1C1068291C221CFFF76CFF38BDC04690
:10817000F4050020F0B51D1C3B4B87B01B68059033
:1081800002930491171C0B1C02991C785E1C0A199F
:10819000517808220A4001D0331CF5E72D2C04D178
:1081A00001229E1C5C78019204E001922B2C01D1EB
:1081B0005C789E1C10232A1C9A4311D1302C08D1C4
:1081C000327820218A43582A07D174781D1C023640
:1081D00006E0002D04D10A2502E0002D00D108257B
:1081E0000120291C4042FCF7ADFF039001204042D2
:1081F000291CFCF7EBFF00238C46181C02990A1976
:108200005278510701D5303C07E00321114017D0C7
:108210005722012900D13722A41AAC4210DA002BD0
:1082200009DB039A904206D801D1644503DC684318
:108230000123201801E001235B4234780136DDE799
:10824000002B04DA059922220A60012002E0019A3B
:10825000002A00D04042002F04D0049A002B00D006
:10826000721E3A6007B0F0BD9005002038B5131CAF
:10827000044A051C0C1C1068291C221CFFF77AFFFD
:1082800038BDC046F4050020F8B5C046F8BC08BCAF
:108290009E467047F8B5C046F8BC08BC9E4670477D
:1082A00000C201000000000000000000000000000B
:1082B0000C0000000000000000C2010000000000EF
:1082C00000000000000000000C00000000010000A1
:1082D000E4820008C000002000440040FF000000CD
:1082E000FF00000000000200000000480400000041
:1082F0000000020002000100000000480800000029
:108300000000020003000100000000000000000067
:1083100000000000000000002C830008D8000020AE
:1083200000380140FF000000E803000000400000AA
:108330000000004800040000000002000A000100E4
:1083400000000048000200000000020009000100D7
:108350000000004800100000000002000C000100B6
:108360000A2074696D6572203320696E69743A0061
:108370007C7C000A207061697265645F726F6C5F5B
:108380006E206572726F72000A206572726F7221C0
:10839000000A20726F6C65746120696E6974000A4E
:1083A000206572723233343235000A207469706B82
:1083B000653A30782578000A207469706B617570B1
:1083C000000A207469706B61646F776E000A207414
:1083D00069706B6175703A2025756D73000A2074A1
:1083E00069706B61646F776E3A2025756D73000A52
:1083F000206572726F722032000A207365742074D7
:10840000726961632030000A20726F6C5B25645DC5
:108410002073746174653A25642075705F6D616EB8
:108420003A256420646F776E5F6D616E3A25642033
:108430007469706B6175705F6C6173743A25642048
:108440007469706B61646F776E5F6C6173743A25E9
:1084500064000A20726F6C5B25645D206173746137
:1084600074653A2564000A6D6F64653A25640052AC
:108470005B25645D3A25642520000A207365745FDE
:10848000726F6C2D20726F6C5F6E3A256420726F74
:108490006C5F706F735F636D643A256420726F6CFC
:1084A0005F706F735F6F6C643A2564000A206172BD
:1084B0006763206572726F72000A20726F6C5B25B1
:1084C000645D3A206D6F64653A256420706F733A7D
:1084D000256400286E756C6C29000A206E3D2564A9
:1084E0002064636E743A2564000A206D79627573A6
:1084F00020696E6974003A4F4B000A0D52533438AC
:108500003520616464723A30782578000A0D5F6323
:1085100072635F6572726F72000A0D6574785F65D1
:1085200072726F72202872785F636861723A307875
:1085300025782920646573743A30782578000A0D0F
:1085400074696D656F757400726F6C2056312E30D2
:108550002E30000A5253343835207365742061641C
:108560006472000A206E61636B202D2066756E6355
:1085700074696F6E206E756D6265723A2564000ACB
:108580006D79627573207374617469737469637350
:10859000000A416464723A25303278000A72785FCA
:1085A000746F745F6D73675F636E743A2564000A5D
:1085B00072785F6D73675F636E74202020203A25A8
:1085C00064000A72785F6574785F6572725F636ECB
:1085D000743A2564000A72785F74696D656F75740A
:1085E0005F636E743A2564000A72785F6372635F3A
:1085F0006572725F636E743A2564000A0A0A000AA3
:108600002074656D705F4453313832303A256420F0
:1086100074656D705F534539353A2564000A707290
:10862000696E742074656D70657261747572652011
:1086300074696D653A25646D73000A2069326320A0
:108640006E61636B20616464723A30782578000A49
:10865000206932633220696E6974000A20693263CE
:108660002062757379000A206932632074696D6530
:108670006F75743A207265696E697421000A6932F7
:108680006320777269746520616464723A3078257A
:1086900078207265673A3078257820646174613A91
:1086A00030782578000A6932632072656164206140
:1086B0006464723A30782578207265673A3078259C
:1086C00078207265675F76616C75653A30782578D9
:1086D000000A3D3E000A4E455720424C41000A41E7
:1086E0007267756D656E7425643D2573000A525579
:1086F0004E3A2573006F73635F6C6F2031000A413F
:108700004444523A30000A207772697465000A20A6
:10871000616464723A307825780000001B88000894
:108720008975000809880008208800089D740008E1
:108730002488000839880008E57700084888000880
:1087400055880008596C00085D8800086F8800088B
:1087500039610008758800088288000819730008CC
:108760008B88000894880008BD7200089E88000865
:10877000B2880008E96B0008AC880008B8880008D7
:10878000E9600008C0880008CD8800082565000859
:10879000D6880008E2880008E56E0008ED88000829
:1087A0000A48656C700A000A436D64206C69737432
:1087B0003A002025732C000A556E6B6E6F776E2081
:1087C000706172616D65746572000A2020252D311B
:1087D0003573202573000A556E6B6E6F776E2063BC
:1087E0006F6D6D616E64000A202025313273202583
:1087F00073000A4572726F723A556E6B6E6F776EC8
:1088000020436F6D6D616E64003C2D6C206F722093
:10881000636D643E207072696E742068656C7000D0
:10882000626C6100746573742072756E20636D6490
:108830005F70726F63657373007365745F72733416
:1088400038355F6164647200727334383561646412
:108850007265737300656E746572424C00656E7468
:10886000657220426F6F74204C6F61646572007294
:1088700065736574007265736574206465766963F9
:1088800065006932635F72656164006164647220CF
:10889000726567006932635F77726974650061644D
:1088A00064722072656720646174610052533438C9
:1088B00035207374617473007365745F726F6C003C
:1088C000726F6C6E20726F6C5F706F730064735F99
:1088D0006465627567006465627567207072696EB1
:1088E00074007072696E745F74656D700070726987
:1088F0006E742074656D7065726174757265206543
:1089000076657279206E206D696C697365636F6E30
:108910006473000A7265736574206D63753A286923
:108920006E7465726E616C20574429000A20666C73
:108930006173682077726974653A204F4B000A2092
:10894000666C6173682077726974653A204552528B
:108950004F52000A207273343835206164647265A6
:10896000737320696E20666C6173683A307825787D
:1089700000746F646F3A20656E74657220626F6F69
:10898000746C6F6164657221000A20676F696E679D
:1089900020746F20626F6F746C6F61646572212048
:1089A000525334383520616464723A307825780047
:1089B0000A20626F6F746C6F6164657220666C610F
:1089C000673A2030782578203078257800002020FC
:1089D000202020202020202828282828202020206F
:1089E000202020202020202020202020202088102F
:1089F000101010101010101010101010101004048F
:108A00000404040404040404101010101010104195
:108A10004141414141010101010101010101010106
:108A2000010101010101010101101010101010429B
:108A300042424242420202020202020202020202D6
:108A400002020202020202020210101010200000B4
:108A50000000000000000000000000000000000016
:108A60000000000000000000000000000000000006
:108A700000000000000000000000000000000000F6
:108A800000000000000000000000000000000000E6
:108A900000000000000000000000000000000000D6
:108AA00000000000000000000000000000000000C6
:108AB00000000000000000000000000000000000B6
:108AC0000000000000000000000000000000430063
:048AD000E950000861
:048AD400C150000885
:108AD800000000000000000000000000000000008E
:108AE800530700205406002000000000000000008A
:108AF800000000000000000052080020510900207A
:108B08000000000000000000010203040607080935
:108B1800006CDC02AAAA0000080000001000000097
:108B280020000000400000000000000000000000DD
:108B3800200000008000000000000000000000008D
:108B4800000000000000000010000000000000000D
:108B5800000000000000000000000000000000000D
:108B680001000000013C76657273696F6E5F646195
:108B780074613E726F6C2056312E302E303C2F7649
:108B8800657273696F6E5F646174613E0068656CDD
:108B9800700000000000000000000000000000005D
:108BA80000000000000000000000000000000000BD
:108BB80000000000000000000000000000000000AD
:108BC800000000000000000000000000000000009D
:108BD800000000000000000000000000000000008D
:108BE800000000000000000000000000000000007D
:108BF800000000000000000000000000000000006D
:108C0800000000000000000000000000000000005C
:108C1800000000000000000000000000000000004C
:108C2800000000000000000000000000000000003C
:108C3800000000000000000000000000000000002C
:108C4800000000000000000000000000000000001C
:108C5800000000000000000000000000000000000C
:108C680000000000000000000000000000000000FC
:108C780000000000000000000000000000000000EC
:108C880000000000000000000000000000000000DC
:108C980000000000000000000000000000000000CC
:108CA80000000000000000000000000000000000BC
:108CB80000000000000000000000000000000000AC
:108CC800000000000000000000000000000000009C
:108CD800000000000000000000000000000000008C
:108CE800000000000000000000000000000000007C
:108CF800000000000000000000000000000000006C
:108D0800000000000000000000000000000000005B
:108D1800000000000000000000000000000000004B
:108D2800000000000000000000000000000000003B
:108D3800000000000000000000000000000000002B
:108D4800000000000000000000000000000000001B
:108D5800000000000000000000000000000000000B
:108D680000000000000000000000000000000000FB
:108D780000000000000000000000000000000000EB
:108D880000000000000000000000000000000000DB
:108D9800C1C081C1400101C3C003800241C201C6F4
:108DA800C006800741C70005C1C581C4400401CC85
:108DB800C00C800D41CD000FC1CF81CE400E000AFE
:108DC800C1CA81CB400B01C9C009800841C801D87C
:108DD800C018801941D9001BC1DB81DA401A001E76
:108DE800C1DE81DF401F01DDC01D801C41DC001495
:108DF800C1D481D5401501D7C017801641D601D2FC
:108E0800C012801341D30011C1D181D0401001F0AC
:108E1800C030803141F10033C1F381F24032003675
:108E2800C1F681F7403701F5C035803441F4003C84
:108E3800C1FC81FD403D01FFC03F803E41FE01FA7B
:108E4800C03A803B41FB0039C1F981F8403800281D
:108E5800C1E881E9402901EBC02B802A41EA01EEF3
:108E6800C02E802F41EF002DC1ED81EC402C01E494
:108E7800C024802541E50027C1E781E6402600227D
:108E8800C1E281E3402301E1C021802041E001A04B
:108E9800C060806141A10063C1A381A240620066F5
:108EA800C1A681A7406701A5C065806441A4006C84
:108EB800C1AC81AD406D01AFC06F806E41AE01AAFB
:108EC800C06A806B41AB0069C1A981A8406800787D
:108ED800C1B881B9407901BBC07B807A41BA01BE73
:108EE800C07E807F41BF007DC1BD81BC407C01B494
:108EF800C074807541B50077C1B781B640760072FD
:108F0800C1B281B3407301B1C071807041B00050EB
:108F1800C190819140510193C05380524192019672
:108F2800C056805741970055C19581944054019C83
:108F3800C05C805D419D005FC19F819E405E005A7C
:108F4800C19A819B405B0199C0598058419801881A
:108F5800C04880494189004BC18B818A404A004EF4
:108F6800C18E818F404F018DC04D804C418C004493
:108F7800C184818540450187C0478046418601827A
:108F8800C042804341830041C1818180404000004C
:108F98000000010203040102030406070809000097
:108FA800CD8900080000000000000000000000005B
:108FB80000000000000000000000000000000000A9
:108FC80000000000CE8A0008000000000000000039
:108FD8000000000000000000000000000000000089
:108FE8000000000000000000000000000000000079
:108FF8000000000000000000000000000000000069
:089008000000000094050020A7
:0400000508000001EE
:00000001FF
